:020000040800F2
:100000005004002001010008BB0F00083D0B000850
:10001000B90F00087D0100080D1200080000000063
:10002000000000000000000000000000BF0F0008FA
:100030007F01000800000000BD0F0008C10F00088C
:100040001B0100081B0100081B0100081B01000820
:100050001B0100081B0100081B0100081B01000810
:100060001B0100081B0100081B0100081B01000800
:100070001B0100081B0100081B0100081B010008F0
:100080001B0100081B0100081B0100081B010008E0
:100090001B0100081B0100081B0100081B010008D0
:1000A0001B0100081B0100081B0100081B010008C0
:1000B0001B0100081B010008000000001B010008D4
:1000C0001B01000800000000000000001B010008E8
:1000D000000000001B0100081B01000800000000D8
:1000E0001B0100081B0100081B010008DFF80CD0F1
:1000F00000F032F8004800474D120008500400207C
:100100000648804706480047FEE7FEE7FEE7FEE7B1
:10011000FEE7FEE7FEE7FEE7FEE7FEE70910000860
:10012000ED000008D2B201E000F8012B491EFBD21D
:1001300070470022F6E710B513460A4604461946F2
:10014000FFF7F0FF204610BD421C10F8011B0029EC
:10015000FBD1801A70470000064C074D06E0E068AE
:1001600040F0010394E8070098471034AC42F6D3FE
:10017000FFF7C0FF281B0008481B0008FEE7704778
:100180002DE9F84FDFF89C91002409F1040A0AF1E7
:10019000040B23460F270BF1040EBBE00125A540FD
:1001A0002A40AA4276D1DFF880C14E68A6EB0C083F
:1001B00066452BD00DDC032E34D005DC36B3012E82
:1001C00019D0022E2FD11BE0112E16D0122E2AD1BB
:1001D00019E0B8F5881F19D006DCB8F5803F15D0B6
:1001E000B8F5801F1FD111E0B8F5001F0ED0B8F58B
:1001F000041F18D10AE0CB6815E0CB681B1D12E084
:10020000CB6808330FE0CB680C330CE08B682BB164
:10021000012B4FF0080303D0456104E0042302E002
:10022000056100E00023FF2A01D8064601E000F145
:1002300004064FEA840501D9A5F12005D6F800800F
:1002400007FA05FC28EA0C0803FA05F548EA050850
:10025000C6F800804D68ED005BD5344DAE6946F0C0
:100260000106AE61AD6924F0030605F001050095B5
:100270002F4D06EB050CDCF80850A607360F07FAE1
:1002800006F825EA0805DFF8AC80404503D14FF0B9
:10029000000810E03DE0DFF8A080404502D14FF0BB
:1002A000010808E0DFF89480404502D14FF00208D1
:1002B00001E04FF0030808FA06F848EA0508CCF810
:1002C00008804D68D9F80060ED034D4601D516430E
:1002D00000E096432E604D68DAF80060AD035546A5
:1002E00001D5164300E096432E604D68DBF80060B0
:1002F000ED025D4601D5164300E096432E604D6841
:10030000DEF80060AD02754601D5164300E0964365
:100310002E60641C0A6832FA04F57FF43FAFBDE832
:10032000F88F00000004014000001110001002408E
:100330000000014000080140000C01400010014095
:100340000AB1016170470904FBE7000001488068B9
:1003500070470000000000200248816802781144C4
:100360008160704700000020074810B5016841F027
:1003700010010160032000F067F8002000F006F88B
:1003800000F024F8002010BD0020024070B50D4D93
:1003900004464FF47A712878B1FBF0F00A490968F5
:1003A000B1FBF0F000F0BEFA48B9102C07D20022E1
:1003B0002146501E00F028F800206C6070BD01201E
:1003C00070BD0000000000200C0000200C4808B5A3
:1003D000816941F001018161816901F001010091B0
:1003E000C16941F08051C161C06900F08050009046
:1003F0000448416821F0E06141F08061416008BD3E
:100400000010024000000140F0B40E4B1B680C4687
:10041000C3F30223C3F10705042D00D90425191DD8
:10042000072901D2002300E0DB1E012606FA05F1B0
:10043000491E214099409E40761E16403143F0BC33
:1004400000F0E5BE0CED00E0064900F00702086888
:100450004FF6FF03184040EA0220034A10430860A9
:10046000704700000CED00E00000FA052DE9F047B0
:100470000F46050061D0434E306800F00700B842D7
:1004800009D2306820F0070038433060306800F04F
:100490000700B84251D128683B4C810712D540076C
:1004A00003D5606840F4E06060602878000703D5F9
:1004B000606840F4605060606068A96820F0F000F7
:1004C000084360602878C00728D06868012810D0E9
:1004D0002168022810D0890700292EDA616821F0EE
:1004E000030101436160FFF731FF804641F2883923
:1004F0000DE021688903EFE78901EDE7FFF726FFAB
:10050000A0EB0801494502D90320BDE8F0876068E7
:10051000696800F00C00B0EB810FEFD1306800F09B
:100520000700B8420BD9306820F00700384330602C
:10053000306800F00700B84201D00120E5E72878D4
:10054000400705D56068E96820F4E0600843606012
:100550002878000706D56068296920F4605040EAD1
:10056000C100606000F018F86168084AC1F3031127
:10057000515CC8400649086006480068FFF706FF5E
:100580000020C2E70020024000100240181B0008B3
:100590000C0000200400002012A185B00FC98DE8D6
:1005A0000F0014A0144A006804905168134801F029
:1005B0000C03042B10D0082B0ED1C1F38343C903C5
:1005C0001DF803000AD5516804AAC1F34041515CEB
:1005D0000A4A5043B0FBF1F005B070470849484360
:1005E000FAE7000002030405060708090A0B0C0DD0
:1005F0000E0F1010010200000010024000127A00DD
:1006000000093D002DE9F84F040070D02078C04D5E
:10061000C00749D06868C0F38100012807D0686826
:10062000C0F38100022809D16868C00306D5286894
:10063000800339D560680028E7D035E06068B0F500
:10064000803F0BD010B1B0F5A02F11D0286820F456
:1006500080302860286820F4802002E0286840F478
:1006600080302860606890B1FFF770FE06460AE0AF
:10067000286840F480202860F0E700BFFFF766FE9E
:10068000801B642873D828688003F7D50CE0FFF737
:100690005DFE064605E000BFFFF758FE801B64289C
:1006A000F0D828688003F7D420789A4E80074FF05E
:1006B00001094FF0000839D5686810F00C0F07D019
:1006C0006868C0F38100022809D16868C00306D4B5
:1006D0002868800714D52069012808D110E0206916
:1006E000B0B1C6F80090FFF731FE074605E00AE119
:1006F000FFF72CFEC01B0228C4D828688007F7D556
:100700002868616920F0F80040EAC10028600DE027
:10071000C6F80080FFF71AFE074604E0FFF716FE52
:10072000C01B022823D828688007F7D42078000748
:100730002CD57948A169D9B1C0F80090FFF706FE21
:10074000074604E0FFF702FEC01B02280FD8686AC4
:100750008007F7D571484FF4FA510068B0FBF1F00B
:10076000009000BF0098411E0091FAD20EE080E098
:10077000C0F80080FFF7EAFD074604E0FFF7E6FD5A
:10078000C01B022875D8686A8007F7D42078400714
:1007900060D5E8690027C00008D4E86940F08050BF
:1007A000E861E869012700F0805000905C4801682A
:1007B000C90513D40168834641F480710160FFF7D5
:1007C000C5FD824606E000BFFFF7C0FDA0EB0A00B2
:1007D00064284ED8DBF80000C005F5D5E068012894
:1007E0000AD008B1052813D0286A20F00100286239
:1007F000286A20F0040002E0286A40F00100286224
:10080000E06841F2883B98B1FFF7A0FD82460BE01B
:10081000286A40F004002862EEE700BFFFF796FD6B
:10082000A0EB0A0159455AD8286A8007F6D50CE092
:10083000FFF78CFD824605E0FFF788FDA0EB0A017B
:1008400059454CD8286A8007F6D41FB1E86920F0D2
:100850008050E861E06988B36968C1F381010229C9
:1008600044D00228C6F8608004D0FFF76FFD04462C
:1008700038E034E0FFF76AFD074604E0FFF766FD65
:10088000C01B02282BD828688001F7D4206AB0F555
:10089000803F05D16868A16820F400300843686093
:1008A000D4E908010843696821F4741108436860B9
:1008B000C6F86090FFF74AFD044606E025E000BF59
:1008C000FFF744FD001B022809D828688001F7D5EE
:1008D0001BE000BFFFF73AFD001B022802D90320EE
:1008E000BDE8F88F28688001F4D40EE00128F7D025
:1008F0006868226A00F48031914204D1616A00F490
:100900007010884201D00120EAE70020E8E70000EB
:100910000010024000004242800442420C000020CD
:100920000070004010B5401EB0F1807F01D301205F
:1009300010BD4FF0E02460610F21601700F067FCEC
:100940000020A06107202061002010BD70B590F844
:100950003C20012A19D0012400F83C4F02224270A9
:1009600050F83C3C5A689D6822F070060A68496855
:10097000324325F0800529435A6050F83C2C9160A1
:10098000447000210170084670BD022070BD000057
:1009900000B585B00021009101910291039100689A
:1009A000B0F1804F11D10A48816941F004018161A1
:1009B0008069694600F0040004900620009002203F
:1009C000019003900348FFF7DBFB05B000BD00007A
:1009D000001002400008014070B5044690F83C0049
:1009E0000D4601280DD0012684F83C60022084F8D1
:1009F0003D0042B1042A18D0082A2AD00C2A4DD131
:100A000039E0022070BD206800F05EFB206881693B
:100A100041F0080181612068816921F00401816150
:100A2000206881692A69114311E0206800F074FB95
:100A30002068816941F4006181612068816921F445
:100A400080618161206881692A6941EA02218161AE
:100A500024E0206800F08CFB2068C16941F00801A7
:100A6000C1612068C16921F00401C1612068C169C8
:100A70002A69114311E0206800F0A6FB2068C169D3
:100A800041F40061C1612068C16921F48061C161E4
:100A90002068C1692A6941EA0221C16184F83D6088
:100AA000002084F83C0070BD10B5040003D094F819
:100AB0003D0010B107E0012010BD002084F83C008B
:100AC000204600F00DF8022084F83D00211D20682A
:100AD00000F0BEFA012084F83D00002010BD0000A7
:100AE00008B50068B0F1804F08D10548C16941F0F0
:100AF0000101C161C06900F00100009008BD000063
:100B00000010024010B504460068012200F0CEFA41
:100B100009492068884203D1416C41F40041416495
:100B20002068816801F00701062903D0016841F0BF
:100B300001010160002010BD002C0140FEE770B5EE
:100B40000E4600F0B9F80024204600F0E7F8002037
:100B500000F0D6F80025304600F010F96D1CEDB21B
:100B6000402DF8D3641CE4B2082CEDD370BD01B560
:100B70000098411E0091FBD208BD10B5002000F086
:100B8000C5F800210220FFF7DAFF002000F0C6F8C8
:100B9000002000F0B5F8002000F0C0F8BDE81040DB
:100BA000012000F0B3B82DE9F04781461D461646F6
:100BB0000F461046DDF82080FFF7C6FA84B2AC423B
:100BC00000D92C4600250FE03078434600F07F0224
:100BD00007EBC500C1B206F8012B484600F0F8F853
:100BE000012803D06D1CADB2A542EDD3BDE8F0875E
:100BF00030B585B02E4C00200290A06940F008006E
:100C0000A061A0692B4D00F0080004900120019024
:100C10000390FF20009069462846FFF7B1FAA069CB
:100C200040F00800A061A069694600F00800049047
:100C3000201500902846FFF7A3FAA06940F00800AD
:100C4000A061A069694600F008000490E0140090DB
:100C50002846FFF795FAA06940F00800A061A06956
:100C6000694600F008000490A01400902846FFF7A1
:100C700087FAA06940F00800A061A069694600F009
:100C800008000490A01500902846FFF779FAA069A3
:100C900040F00800A061A069694600F008000490D7
:100CA000601500902846FFF76BFA05B030BD0000D4
:100CB00000100240000C014070B54FF480710F4CE1
:100CC0004D0088B1012815D0022815D100222046F8
:100CD000FFF736FB002229462046FFF731FBBDE82F
:100CE00070401020FFF743BF00222046FFF728FB8B
:100CF0000122F0E70122EAE770BD0000000C01408C
:100D000000F03F0040F0400000F00EB8012803D092
:100D10005FF03E0000F008B83F20FBE700F007005E
:100D200040F0B800AFF3008070B50122124E0446C7
:100D3000150329463046FFF703FB002269103046B1
:100D4000FFF7FEFA0022A9103046FFF7F9FA0A4829
:100D50000C30016801F47F41214301601020FFF74E
:100D600006FF002229463046FFF7EAFABDE8704048
:100D70001020FFF7FCBE0000000C014070B50122FE
:100D8000124E0446150329463046FFF7D9FA0022D1
:100D900069103046FFF7D4FA012291023046FFF77E
:100DA000CFFA0A480C30016801F47F412143016009
:100DB0001020FFF7DCFE002229463046FFF7C0FA7C
:100DC000BDE870401020FFF7D2BE0000000C0140CB
:100DD0002DE9F05F0025DFF8B4B0994692460E4643
:100DE0008046082822D200243019C7B2802F17D29B
:100DF000402F01D2002002E0403F0120FFB2FFF768
:100E00005BFF4046FFF78AFF3846FFF779FF04EBA8
:100E10000A111BF8010080EA0900FFF7AFFF00E0AC
:100E20000125641CE4B2082CDED300E0012508F1A2
:100E3000010000F0FF08B8F1080F23D20024301998
:100E4000C7B2802F18D2402F01D2002002E0403FCD
:100E50000120FFB2FFF730FF4046FFF75FFF384643
:100E6000FFF74EFF04EB0A1101EB0B00007A80EA5A
:100E70000900FFF783FF00E00125641CE4B2082CA1
:100E8000DDD300E001252846BDE8F09F18130008D7
:100E9000F0B585B00024274800940194029403948F
:100EA000816941F010018161816901F010010491B3
:100EB000816941F020018161816901F02001049183
:100EC000816941F004018161816901F004010491AB
:100ED000816941F0080181618069174F00F00800C5
:100EE0004FF400460490002231463846FFF728FAB6
:100EF00007200325CDE9000569461048FFF740F9B2
:100F0000701ECDE9000569463846FFF739F9012022
:100F10000096CDE901040220039069463846FFF7A8
:100F20002FF90748416841F0E06141F40041416018
:100F300005B0F0BD00100240000C0140001401405B
:100F40000000014010B58AB0002407941C216846B7
:100F50000894FFF7EEF817484FF0804101604721F1
:100F6000C0E9011440F2E731C0E903148021816136
:100F7000FFF79AFD079407A90E480894FFF7E6FCCF
:100F80006020009040F2F310CDE90104042269468C
:100F900008480494FFF720FD40F2BB20019008228E
:100FA00069460448FFF718FD0248FFF7F1FC0AB054
:100FB00010BD000010000020FEE77047704770472A
:100FC000FFF7CAB910B590B028216846FFF7B1F80D
:100FD00014210AA8FFF7ADF8022000900120049028
:100FE00010200024059007946846FFF70BFB0F20A4
:100FF000CDE90A040C940D9400210AA80E94FFF781
:1010000035FA10B010BD00000D48016841F0010133
:10101000016041680B4A1140416001680A4A114071
:101020000160016821F480210160416821F4FE0122
:1010300041604FF41F0181600449C003086070479C
:10104000001002400000FFF8FFFFF6FE08ED00E090
:1010500070B50268134B144C4FF08046984203D091
:10106000B04201D0A04203D122F070054A682A4361
:10107000984203D0B04201D0A04203D122F4407480
:10108000CA6822434C6922F08002224302608A68C7
:10109000C2620A688262984201D109690163012132
:1010A000416170BD002C01400004004010B501F00A
:1010B0001F030121046A99408C430462016A9A402B
:1010C0001143016210BD000030B5026A22F0010236
:1010D0000262026A4368846924F073050C682C4339
:1010E00022F002058A682A430A4DA8420BD122F059
:1010F0000805CA6823F440732A434D6922F00402AC
:101100001D438B692B4343608461496841630262DC
:1011100030BD0000002C014030B5026A22F0100200
:101120000262026A436884690D6824F4E64444EA72
:1011300005248D6822F0200242EA05120B4DA842D8
:101140000ED1CD6822F0800242EA05124D6923F4E7
:10115000406343EA85038D6922F0400243EA850338
:101160004360846149688163026230BD002C0140A4
:1011700030B5026A22F480720262036A4268C4696E
:1011800023F4007324F073050C682C438D6843EA44
:1011900005230C4DA8420ED1CD6823F4006343EA29
:1011A00005234D6922F4405242EA05128D6923F469
:1011B000806342EA05124260C4614968C163036208
:1011C00030BD0000002C014030B5026A22F480528C
:1011D0000262046A4268C3690D6823F4E64343EA85
:1011E00005238D6824F4005444EA0534064DA842D2
:1011F00004D14D6922F4804242EA85124260C36103
:1012000049680164046230BD002C0140FEE7090713
:10121000090E002804DB00F1E02080F8001470477C
:1012200000F00F0000F1E02080F8141D704702E08C
:1012300008C8121F08C1002AFAD170477047002061
:1012400001E001C1121F002AFBD1704708B5FFF76A
:101250008BF8FFF7B7FE1D48816941F004018161F9
:10126000806900F004000090FFF76CFEFFF710FEAD
:10127000FFF7BEFCFFF781FC00210220FFF75FFCB7
:10128000FF240A2312A2194600200094FFF78BFCCA
:101290000D2312A20A2102200094FFF784FC1023E0
:1012A00012A20A2104200094FFF77DFC102314A24F
:1012B0000A2106200094FFF776FC04211548FFF769
:1012C00021FC08211348FFF71DFCFEE70010024037
:1012D00054494D45525F44454D4F000054494D32ED
:1012E0005F50574D5F4D4F44450000005041312D38
:1012F00050574D56414C55453A35302500000000B9
:101300005041322D50574D56414C55453A373025B6
:10131000000000001000002000000000000000009D
:101320000000000000000000F8049484849404F895
:101330000708080909080807F8FC6C7C7C6CFCF8B5
:10134000070F0F0E0E0F0F07E0F0F0E0F0F0E000D7
:101350000103070F0703010080C0E0F0E0C0800038
:101360000001030703010000C0C0F03838F0C0C01E
:101370000101090E0E090101C0E0F0F8F8F0E0C02B
:101380000001090F0F090100000080C0C0800000AB
:101390000000010303010000FFFF7F3F3F7FFFFFCD
:1013A000FFFFFEFCFCFEFFFF00C060202060C000CD
:1013B0000003060404060300FF3F9FDFDF9F3FFF9B
:1013C000FFFCF9FBFBF9FCFF80C06074DC8C3C0087
:1013D000070F08080F0700000078FC8484FC7800E1
:1013E0000002020F0F0202000000FCFC14141C1C7F
:1013F0000C0E0F070000000000FCFC141414FCFC91
:101400001C1F0F00000E0F07A0A0C07878C0A0A07E
:101410000202010F0F010202FEFCF8F0E040400062
:101420000F070301000000004040E0F0F8FCFE0060
:101430000000000103070F00001018FCFC1810004A
:10144000000103070703010000FCFC0000FCFC0096
:10145000000D0D00000D0D00387C44FCFC04FCFC6C
:101460000000000F0F000F0FC4EE3A1232E6C40066
:1014700008191312171D08000000000000000000EA
:101480000F0F0F0F0F0F0F00001018FCFC181000AB
:1014900000090B0F0F0B0900001018FCFC181000BE
:1014A0000000000F0F000000000000FCFC00000026
:1014B0000002060F0F060200808080A0E0C08000BE
:1014C000000000020301000080C0E0A080808000D6
:1014D0000001030200000000C0C000000000000086
:1014E000030302020202020080C0E080E0C080002C
:1014F00000010300030100000080E0F0E080000034
:10150000060707070707060030F0F0F0F0F030009C
:1015100000000307030000000000000000000000BE
:101520000000000000000000000038FCFC38000053
:101530000000000D0D000000000E1E00001E0E0039
:10154000000000000000000020F8F820F8F820005B
:10155000020F0F020F0F0200387C444747CC98005F
:10156000060C0838380F070030300080C0603000AB
:101570000C060301000C0C0080D87CE4BCD84000B1
:10158000070F0808070F080000101E0E00000000DB
:1015900000000000000000000000F0F80C04000053
:1015A000000003070C0800000000040CF8F0000025
:1015B0000000080C0703000080A0E0C0C0E0A0808D
:1015C0000002030101030200008080E0E08080004F
:1015D0000000000303000000000000000000000005
:1015E0000000101E0E00000080808080808080003F
:1015F00000000000000000000000000000000000EB
:101600000000000C0C00000000000080C0603000F2
:101610000C06030100000000F0F80CC40CF8F00008
:1016200003070C080C070300001018FCFC00000066
:101630000008080F0F080800080C84C4643C180058
:101640000E0F0908080C0C00080C444444FCB800B8
:10165000040C0808080F0700C0E0B098FCFC8000EC
:10166000000000080F0F08007C7C444444C4840040
:10167000040C0808080F0700F0F84C4444C0800030
:10168000070F0808080F07000C0C0484C47C3C00FA
:1016900000000F0F00000000B8FC444444FCB800F8
:1016A000070F0808080F0700387C444444FCF80082
:1016B000000808080C07030000000030300000009C
:1016C00000000006060000000000003030000000AE
:1016D0000000080E060000000080C06030180800FE
:1016E00000000103060C080000202020202020001C
:1016F00000010101010101000008183060C08000F4
:1017000000080C0603010000181C04C4E43C180087
:101710000000000D0D000000F0F808C8C8F8F00047
:10172000070F080B0B0B0100E0F0988C98F0E0001D
:101730000F0F0000000F0F0004FCFC4444FCB80035
:10174000080F0F08080F0700F0F80C04040C18002D
:1017500003070C08080C060004FCFC040CF8F0005D
:10176000080F0F080C07030004FCFC44E40C1C00E9
:10177000080F0F08080C0E0004FCFC44E40C1C00CD
:10178000080F0F0800000000F0F80C84848C98000B
:1017900003070C0808070F00FCFC404040FCFC005D
:1017A0000F0F0000000F0F00000004FCFC040000FD
:1017B0000000080F0F08000000000004FCFC0400FB
:1017C000070F08080F07000004FCFCC0E03C1C00E9
:1017D000080F0F00010F0E0004FCFC0400000000C5
:1017E000080F0F08080C0E00FCFC387038FCFC00D9
:1017F0000F0F0000000F0F00FCFC3870E0FCFC0035
:101800000F0F0000000F0F00F8FC040404FCF800A8
:10181000070F0808080F070004FCFC44447C38004C
:10182000080F0F0800000000F8FC040404FCF80096
:10183000070F080E3C3F270004FCFC44C4FC3800A2
:10184000080F0F00000F0F00183C6444C49C1800E0
:10185000060E0808080F0700001C0CFCFC0C1C00FE
:101860000000080F0F080000FCFC000000FCFC005A
:10187000070F0808080F0700FCFC000000FCFC0034
:101880000103060C06030100FCFC00C000FCFC0088
:10189000070F0E030E0F07000C3CF0E0F03C0C00AD
:1018A0000C0F0301030F0C00003C7CC0C07C3C000B
:1018B0000000080F0F0800001C0C84C4643C1C00CE
:1018C0000E0F0908080C0E000000FCFC04040000C8
:1018D00000000F0F080800003870E0C08000000012
:1018E0000000000103070E0000000404FCFC0000DF
:1018F000000008080F0F0000080C0603060C080083
:1019000000000000000000000000000000000000D7
:1019100020202020202020200000030704000000B9
:10192000000000000000000000A0A0A0E0C0000037
:10193000070F0808070F080004FCFC2060C08000A7
:10194000000F0F08080F0700C0E0202020604000B3
:10195000070F0808080C040080C06024FCFC00008D
:10196000070F0808070F0800C0E0A0A0A0E0C00013
:10197000070F0808080C040040F8FC440C1800008D
:10198000080F0F0800000000C0E02020C0E0200089
:10199000276F48487F3F000004FCFC4020E0C00067
:1019A000080F0F00000F0F00000020ECEC000000FB
:1019B0000000080F0F0800000000000020ECEC0001
:1019C00000307040407F3F0004FCFC80C06020007D
:1019D000080F0F01030E0C00000004FCFC000000C7
:1019E0000000080F0F080000E0E060C060E0C000E9
:1019F0000F0F0007000F0F0020E0C02020E0C00004
:101A0000000F0F00000F0F00C0E0202020E0C000FA
:101A1000070F0808080F070020E0C02020E0C000E2
:101A2000407F7F48080F0700C0E02020C0E0200072
:101A3000070F08487F7F400020E0C06020E0C00022
:101A4000080F0F080000000040E0A02020604000C8
:101A5000040C09090B0E04002020F8FC20200000D3
:101A60000000070F080C0400E0E00000E0E00000C8
:101A7000070F0808070F080000E0E00000E0E000A2
:101A80000003070C0C070300E0E0008000E0E0002A
:101A9000070F0C070C0F07002060C080C0602000FB
:101AA000080C0703070C0800E0E0000000E0E0007D
:101AB000474F4848683F1F00606020A0E06020005A
:101AC0000C0E0B09080C0C00004040F8BC0404008C
:101AD000000000070F080800000000BCBC00000068
:101AE0000000000F0F000000000404BCF84040009C
:101AF0000008080F07000000080C040C080C040084
:101B0000000000000000000080C0603060C0800065
:101B1000070704040407070000000000000000009D
:101B20000102030406070809481B00080000002002
:101B3000100000002E120008581B000810000020A2
:101B4000400400003E1200080100000010000000E8
:081B5000000000000024F40075
:04000005080000ED02
:00000001FF
